:100000000C948F000C94B7000C94B7000C94B700BC
:100010000C94B7000C94B7000C94B7000C94B70084
:100020000C94B7000C94B7000C94B7000C94B70074
:100030000C94B7000C94B7000C94B7000C94B70064
:100040000C94F0010C94B7000C9460020C943A02EA
:100050000C94B7000C94B7000C94B7000C94B70044
:100060000C946D040C94B70008000000BE92244963
:10007000123EABAAAA2ABECDCCCC4C3E00000080DA
:10008000BEABAAAAAA3E00000000BF000000803F4D
:100090000000000000084178D3BB4387D1133D190D
:1000A0000E3CC3BD4282AD2B3E68EC8276BED98F3A
:1000B000E1A93E4C80EFFFBE01C4FF7F3F0000007E
:1000C00000000000000023002600290000000000BE
:1000D000240027002A0000000000250028002B0033
:1000E00004040404040404040202020202020303DE
:1000F00003030303010204081020408001020408E6
:100100001020010204081020000000080002010075
:10011000000304070000000000000000CE0E1124C0
:100120001FBECFEFD8E0DEBFCDBF11E0A0E0B1E051
:10013000E4E4F8E202C005900D92A436B107D9F7C5
:1001400023E0A4E6B1E001C01D92A53EB207E1F7AD
:1001500010E0CFE8D0E004C02197FE010E94F41027
:10016000CE38D107C9F70E94AC090C9420140C9426
:100170000000CF92DF92EF92FF920F931F93CF93E5
:10018000DF936C017A018B01C0E0D0E0CE15DF0572
:1001900081F0D8016D918D01D601ED91FC91019016
:1001A000F081E02DC6010995892B11F02196EECF43
:1001B0007E01C701DF91CF911F910F91FF90EF90CA
:1001C000DF90CF900895089580E090E00895FC01BD
:1001D000538D448D252F30E0842F90E0821B930BAC
:1001E000541710F0CF96089501970895FC01918D52
:1001F000828D981761F0828DDF01A80FB11D5D9689
:100200008C91928D9F5F9F73928F90E008958FEFF6
:100210009FEF0895FC01918D828D981731F0828DAA
:10022000E80FF11D858D90E008958FEF9FEF089501
:10023000FC01918D228D892F90E0805C9F4F821B65
:1002400091098F739927089581EA91E00E9418011E
:1002500021E0892B09F420E0822F0895FC01848D90
:10026000DF01A80FB11DA35ABF4F2C91848D90E0E0
:1002700001968F739927848FA689B7892C93A089BB
:10028000B1898C91837080648C93938D848D981345
:1002900006C00288F389E02D80818F7D80830895D8
:1002A000EF92FF920F931F93CF93DF93EC0181E0C6
:1002B000888F9B8D8C8D981305C0E889F989808182
:1002C00085FD26C0F62E0B8D10E00F5F1F4F0F73BC
:1002D0001127E02E8C8DE8120CC00FB607FCFACF68
:1002E000E889F989808185FFF5CFCE010E942E0132
:1002F000F1CF8B8DFE01E80FF11DE35AFF4FF08225
:100300009FB7F8940B8FEA89FB89808180620AC0CD
:100310009FB7F894EE89FF896083E889F989808125
:100320008370806480839FBF81E090E0DF91CF91F4
:100330001F910F91FF90EF900895CF93DF93EC0101
:10034000888D8823C9F0EA89FB89808185FD05C0F5
:10035000A889B9898C9186FD0FC00FB607FCF5CF2F
:10036000808185FFF2CFA889B9898C9185FFEDCF77
:10037000CE010E942E01E7CFDF91CF91089580E05A
:1003800090E0892B29F00E94240181110C94000037
:1003900008950E941B143FB7F894809192019091A8
:1003A0009301A0919401B091950126B5A89B05C039
:1003B0002F3F19F00196A11DB11D3FBFBA2FA92FE4
:1003C000982F8827820F911DA11DB11DBC01CD0161
:1003D00042E0660F771F881F991F4A95D1F708954D
:1003E0001F920F920FB60F9211242F933F938F936A
:1003F0009F93AF93BF9380918E0190918F01A091B5
:100400009001B091910130918D0123E0230F2D37A0
:1004100020F40196A11DB11D05C026E8230F029608
:10042000A11DB11D20938D0180938E0190938F01AA
:10043000A0939001B09391018091920190919301CA
:10044000A0919401B09195010196A11DB11D8093D9
:10045000920190939301A0939401B0939501BF9161
:10046000AF919F918F913F912F910F900FBE0F9061
:100470001F9018951F920F920FB60F9211242F9371
:100480003F934F935F936F937F938F939F93AF931C
:10049000BF93EF93FF9381EA91E00E942E01FF91B9
:1004A000EF91BF91AF919F918F917F916F915F91EC
:1004B0004F913F912F910F900FBE0F901F90189565
:1004C0001F920F920FB60F9211242F938F939F9329
:1004D000EF93FF93E091B101F091B2018081E0913F
:1004E000B701F091B80182FD12C090818091BA01EC
:1004F0008F5F8F732091BB01821751F0E091BA0199
:10050000F0E0EF55FE4F958F8093BA0101C08081D6
:10051000FF91EF919F918F912F910F900FBE0F90B0
:100520001F90189508958EBD00000DB407FEFDCFF5
:100530008EB508958CBD9DBD0895282F3091A001E2
:10054000313208F04AC080919E018111FCCF909118
:10055000D80342E040939E0120939D012FEF20930A
:10056000B6031092B5033093B403E8EBF3E0A4E9CB
:10057000B3E020E0321721F041914D932F5FFACF85
:100580001092930320919303990F922B90939303CE
:1005900090919C01913061F410929C019091930391
:1005A0009093BB009091BC0093FDF8CF95EC01C0F7
:1005B00095EE9093BC0090919E019230E1F3909162
:1005C000B6039F3F79F08091B603803241F080916D
:1005D000B603803331F084E005C081E003C082E0DF
:1005E00001C083E010929F011092A0011092B70306
:1005F000089585ED8093BC008091BC0084FDFCCF04
:1006000010929E01089540915003262F30E0240F50
:10061000311D21323105DCF420919E012430C9F4D2
:10062000FC0180E090E0861758F43091500321914E
:10063000DC01A05DBC4FA30FB11D2C930196F3CF3D
:1006400080915003680F6093500380E0089581E02B
:10065000089582E00895089508950895E0919B011A
:1006600080919A01E81730F4F0E0ED58FC4F80815A
:1006700090E008958FEF9FEF089590919B018091F6
:100680009A01981750F4E92FF0E0ED58FC4F2081C3
:1006900030E09F5F90939B0102C02FEF3FEFC901B5
:1006A000089580919A0190E020919B01821B91090D
:1006B0000895CF92DF92EF92FF920F931F93CF9303
:1006C000DF937C01CB018A012091B703222389F0BB
:1006D000EB016B01C40ED51ECC15DD0569F06991E7
:1006E000D701ED91FC910190F081E02DC7010995B2
:1006F000F3CF642F0E940303C801DF91CF911F91B4
:100700000F91FF90EF90DF90CF900895CF93DF93FC
:100710001F92CDB7DEB769832091B7032223D1F0B2
:100720002091A001203240F021E030E0FC01338331
:10073000228380E090E015C080919F01E82FF0E0D7
:10074000E854FC4F998190838F5F80939F01809341
:10075000A00105C061E0CE0101960E94030381E083
:1007600090E00F90DF91CF91089580919E018111CB
:10077000FCCF413208F040E281E080939E018093FB
:100780009D019FEF9093B6031092B503940F909341
:10079000B4038093930380919303660F682B609357
:1007A000930380919C01813061F410929C018091AF
:1007B00093038093BB008091BC0083FDF8CF85EC50
:1007C00001C085EE8093BC0080919E018130E1F3F1
:1007D0008091B503841710F44091B503E4E9F3E088
:1007E000A3E7B3E080E0841721F091919D938F5FA0
:1007F000FACF10929B0180939A0108950F931F9353
:10080000CF93DF93803891051CF41092640260C08E
:10081000142FEC01813E9105ACF5062F0F778091E6
:1008200064028C1771F0C09364028091F30290917E
:10083000F402DC01ED91FC910190F081E02D6C2F30
:1008400009958091F3029091F402DC01ED91FC9105
:100850000190F081E02D602F0995CF7EC03CD1053D
:10086000B9F18091F3029091F402612F6F77DC016E
:10087000ED91FC910190F081E02DDF91CF911F91DE
:100880000F910994865F91090A9710F5CD3FD10524
:1008900050F4CA3FD10560F4C63FD10549F0C83FC6
:1008A000D10591F405C0CE018E5F9109029760F4E5
:1008B0008091F3029091F402DC01ED91FC910190A2
:1008C000F081E02D6C2F0995C63FD10509F49DCF2D
:1008D000DF91CF911F910F9108951F920F920FB644
:1008E0000F9211242F933F934F935F936F937F93B6
:1008F0008F939F93AF93BF93EF93FF938091B90032
:10090000887F803609F49CC068F5883209F45BC0A2
:1009100090F4803109F454C038F4882309F4F6C007
:10092000883009F44DC0F6C0883109F44CC08032DB
:1009300009F45DC0EFC0803409F468C048F4803326
:1009400009F455C0883309F0E5C08093B603D8C0D8
:10095000803509F44FC0883509F45DC0883409F04A
:10096000D9C0D6C0883909F4C7C0A8F4883709F4BB
:1009700067C038F4883609F463C0803709F460C072
:10098000C9C0883809F4B8C0803909F45FC080381C
:1009900009F0C0C05BC0803B09F486C038F4803ADF
:1009A00009F466C0883A09F47FC0B4C0803C09F4F9
:1009B000A7C0883C09F4A4C0883B09F48AC0AAC037
:1009C0008091930310C09091B5038091B403981760
:1009D00070F5E091B50381E08E0F8093B503F0E0F0
:1009E000EC56FC4F80818093BB0085EC86C08093E1
:1009F000B6038EC0E091B50381E08E0F8093B503FE
:100A00008091BB00F0E0EC56FC4F80839091B503E1
:100A10008091B4036EC0E091B50381E08E0F8093A6
:100A2000B5038091BB00F0E0EC56FC4F80838091D1
:100A30009D0181116DC081E080939C0184EA61C0B9
:100A400083E080939E0110927203CFCF8091720356
:100A5000803208F051C0E091720381E08E0F8093E4
:100A600072038091BB00F0E0EE5AFC4F8083BDCF53
:100A700085EC8093BC0010929E01809172038032BD
:100A800030F4E0917203F0E0EE5AFC4F1082609176
:100A9000720370E0E0919801F091990182E593E092
:100AA00009951092720336C084E080939E011092E3
:100AB000510310925003E0919601F091970109952E
:100AC00080915003811105C081E080935003109202
:100AD0003003E091510381E08E0F80935103F0E0E9
:100AE000E05DFC4F80818093BB0090915103809129
:100AF0005003981708F479CF85E88093BC000AC0AA
:100B000085EC8093BC0010929E0104C01092B60345
:100B10000E94F902FF91EF91BF91AF919F918F9148
:100B20007F916F915F914F913F912F910F900FBEE9
:100B30000F901F901895833081F028F4813099F040
:100B40008230A1F008958730A9F08830B9F0843060
:100B5000D1F4809180008F7D03C0809180008F77D9
:100B600080938000089584B58F7702C084B58F7D0F
:100B700084BD08958091B0008F7703C08091B0004C
:100B80008F7D8093B00008951F93CF93DF93282F1C
:100B900030E0F901E85FFE4F8491F901EC50FF4F1E
:100BA000D491F901E052FF4FC491CC23C1F0162F2C
:100BB00081110E949B05EC2FF0E0EE0FFF1FEA521F
:100BC000FF4FA591B4919FB7F894111104C08C9177
:100BD000D095D82302C0EC91DE2BDC939FBFDF9130
:100BE000CF911F9108950F931F93CF93DF93EC0143
:100BF000062F142F8091F5028823B9F0813009F077
:100C00006EC08091F8029091F9020E949A0260E011
:100C10008091F7020E94C405802F80680E94930291
:100C2000CE01810F911D8C0147C080912903813035
:100C300009F055C09091F6028093B7039093D803C2
:100C400010929F011092A00180912A0390912B0392
:100C5000DC01ED91FC910190F081E02D099581E09E
:100C60000E949D02412F6091F60280912A0390918B
:100C70002B030E94B503CE01810F911D8C01809141
:100C80002A0390912B03DC01ED91FC910084F18506
:100C9000E02D0995892B19F1C017D10701F1809139
:100CA0002A0390912B03DC01ED91FC910284F385E2
:100CB000E02D09958993E3CFC017D10729F080E093
:100CC0000E9493028993F8CF61E08091F7020E941D
:100CD000C405DF91CF911F910F910C949202DF9187
:100CE000CF911F910F9108952F923F924F925F9253
:100CF0006F927F928F929F92AF92BF92CF92DF922C
:100D0000EF92FF920F931F93CF93DF93CDB7DEB790
:100D10006A970FB6F894DEBF0FBECDBF43E067EF12
:100D2000CE0101960E94F305809125039091260340
:100D3000A0912703B09128036C017D01FF0CCC0822
:100D4000DC2C76019C01AD016C2D7C2D8C2D9C2D15
:100D5000345F4140510961097109810991092C876A
:100D60003D874E875F87688B772E4C0159016A015A
:100D7000E62EF72E8C010E946F0F622E532E442E0A
:100D8000352E262E788F898F9A8F30910D032091E2
:100D90000C03932F990F990B492F592F692F792FF6
:100DA000892F0E946F0F0CE00E949F102C83398BBB
:100DB0004A8B5B8B6C8B7D8B8E8B9F8B30910F0363
:100DC00020910E03932F990F990BA62CB52CC42CB0
:100DD000D32CE22CF88C098D1A8D492F592F692FAD
:100DE000792F892F0E946F0F08E00E94B810AC8005
:100DF000B988CA88DB88EC88FD880E891F890E9423
:100E0000D61070588F4F9F4FE0910A03F0910B035B
:100E10005F01C12CD12CE12CF12C8701EC83BD8228
:100E2000CE82DF82E886F9860A871B87C12CD12C07
:100E3000E12CF12C00E010E00E946F0F01E20E9413
:100E4000B8102C83398B4A8B5B8B6C8B7D8B8E8B94
:100E50009F8BA0E00E94E81009F431C13091150386
:100E600020911403932F990F990BA62CB52CC42C09
:100E7000D32CE22CF88C098D1A8D492F592F692F0C
:100E8000792F892F0E946F0F19012A01662E788F02
:100E9000898F9A8F3091130320911203932F990F0A
:100EA000990BAC84BD84CE84DF84E888F72C840160
:100EB000492F592F692F792F892F0E946F0F01E138
:100EC0000E949F1051016201E62CF88C098D1A8D49
:100ED0000E94D61059016A017B01182F392E4A81D0
:100EE00050E060E070E084E0440F551F661F771FFC
:100EF0008A95D1F78B8182958F702A013B01482A10
:100F0000498150E060E070E0DB01CA012CE0880F0D
:100F1000991FAA1FBB1F2A95D1F7B301A201482B25
:100F2000592B6A2B7B2B80E090E0A0E1B0E0841B82
:100F3000950BA60BB70B2C013D01770C4408542CE4
:100F400032019C01AD01642D742D842D942D0FE18F
:100F50000E949F1039014A01B62FA72FF82FE92FC1
:100F60003091110320911003932F990F990B492F62
:100F7000592F692F792F892F03E20E949F10012F8B
:100F8000132D0E94D61059016A017B018C01930137
:100F9000A4016B2F7A2F8F2F9E2F0E94DF10E5E385
:100FA000AE2EFCE0BF2EC12CD12CE12CF12C00E0A8
:100FB00010E00E946F0FAC80B988CA88DB88EC888B
:100FC000FD880E891F890E94CA0F2C873D874E8796
:100FD0005F87688B7C83898B9A8B0DE00E94B810A9
:100FE000922E832E742E652E562E472E382E292EA5
:100FF00030911B0320911A03932F990F990BA92C61
:10100000B82CC72CD62CE52CF42C032D122D492FEF
:10101000592F692F792F892F0E946F0F0E946F0F10
:1010200009E10E94B810AC84BD84CE84DF84E888D6
:10103000FC8009891A890E94D61019012A013B01F6
:101040004C013091190320911803932F990F990B9C
:10105000492F592F692F792F892F0E946F0F03E194
:101060000E94B81059016A017B018C019101A20113
:10107000B301C4010E94D61008E00E94B8105901C3
:101080006A017B01E82F192F309117032091160375
:10109000932F990F990B492F592F692F792F892F4A
:1010A00004E00E949F100E2F0E94D6100E941E1274
:1010B00020E030E040E85BE30E94551303C060E0AD
:1010C00070E0CB016A960FB6F894DEBF0FBECDBFBD
:1010D000DF91CF911F910F91FF90EF90DF90CF9014
:1010E000BF90AF909F908F907F906F905F904F9048
:1010F0003F902F900895CF93DF931F92CDB7DEB727
:10110000682F19828091F502882349F0813009F017
:1011100045C041E0CE0101960E94F3053FC0809199
:1011200029038130D9F59091F6028093B70390930B
:10113000D80310929F011092A00180912A039091F0
:101140002B03DC01ED91FC910190F081E02D0995DC
:1011500081E00E949D0241E06091F60280912A03A5
:1011600090912B030E94B50380912A0390912B0349
:10117000DC01ED91FC910084F185E02D0995892B2E
:1011800069F080912A0390912B03DC01ED91FC9191
:101190000284F385E02D09958983E6CF89810F903C
:1011A000DF91CF910895CF93DF93D82FC62F8091F1
:1011B000F5028823F1F0813009F046C08091F802F1
:1011C0009091F9020E949A0260E08091F7020E94D9
:1011D000C4058D2F8F770E9493028C2F0E9493025B
:1011E00061E08091F7020E94C405DF91CF910C94D9
:1011F000920280912903813039F59091F602809313
:10120000B7039093D80310929F011092A001809190
:101210002A0390912B03DC01ED91FC910190F08168
:10122000E02D6D2F099580912A0390912B03DC010D
:10123000ED91FC910190F081E02D6C2F099581E0FA
:10124000DF91CF910C949D02DF91CF910895CF93C0
:10125000C82F843008F0C0E084EF0E947B088C7FA8
:10126000682F6C2B84EFCF910C94D308CF93DF932E
:1012700090E0FC01EC50FF4F2491FC01E052FF4F45
:101280008491882361F190E0880F991FFC01E45359
:10129000FF4FC591D491FC01EA52FF4FA591B49143
:1012A000611109C09FB7F8948881209582238883B3
:1012B000EC912E230BC0623061F49FB7F8948881C3
:1012C000322F309583238883EC912E2B2C939FBF54
:1012D00006C08FB7F894E8812E2B28838FBFDF914B
:1012E000CF9108958F929F92AF92BF92CF92DF924B
:1012F000EF92FF926B017C010E94CB014B015C01DC
:10130000C114D104E104F104F1F00E94CB01DC012D
:10131000CB0188199909AA09BB09883E9340A10508
:10132000B10570F321E0C21AD108E108F10888EE96
:10133000880E83E0981EA11CB11CC114D104E104E5
:10134000F10419F7DDCFFF90EF90DF90CF90BF90C1
:10135000AF909F908F900895CF93DF93CDB7DEB776
:1013600028970FB6F894DEBF0FBECDBF789484B532
:10137000826084BD84B5816084BD85B5826085BD91
:1013800085B5816085BD80916E00816080936E001F
:101390001092810080918100826080938100809111
:1013A00081008160809381008091800081608093C2
:1013B00080008091B10084608093B1008091B00082
:1013C00081608093B00080917A00846080937A007D
:1013D00080917A00826080937A0080917A008160A7
:1013E00080937A0080917A00806880937A001092CE
:1013F000C100E091F302F091F402A089B18922E0EA
:101400002C93A485B5851C92A685B7858FE38C9314
:10141000108EA489B58996E09C93A289B3898C919A
:1014200080618C93A289B3898C9188608C93A28906
:10143000B3898C9180688C930288F389E02D808138
:101440008F7D808381E08093650210926402109208
:10145000630210926C0210926B0210926A02109258
:1014600069021092F20210926F0210926E021092B4
:101470006D0210927002109271028091620281706E
:101480008260816080936202E091B101F091B201CB
:101490002083E091AD01F091AE011082E091AF01A7
:1014A000F091B00180E180831092B901E091B50123
:1014B000F091B6019083E091B301F091B401808185
:1014C00080618083E091B301F091B40180818860F4
:1014D0008083E091B301F091B401808180688083C2
:1014E000E091B301F091B40180818F7D808321E38D
:1014F00031E03A832983E981FA811191FA83E98302
:1015000060E0812F0E94360961E0812F0E94C405AE
:1015100029813A812054314071F71092F50286E713
:101520008093F60283E08093FA021092FB021092FD
:10153000FC0281E08093FD028093FE028093FF0213
:101540006AE070E080E090E00E94720962E070E082
:1015500080E090E00E9472098091F502882319F0E2
:101560008130C9F177C080912903813009F072C0C0
:1015700010929B0110929A0110929F011092A0016B
:1015800010929E0180939D0110929C0161E082E186
:101590000E94C40561E083E10E94C4058091B90006
:1015A0008E7F8093B9008091B9008D7F8093B900C0
:1015B00088E48093B80085E48093BC008BE293E0DC
:1015C00090939701809396018CE293E09093990118
:1015D000809398013FC08FB78983F894809164010C
:1015E000811127C0EAEEF0E08491EEEFF0E09491F3
:1015F000E82FF0E0EE0FFF1FE453FF4FA591B491E9
:10160000EC91E92321F461E08AE00E94C40561E0E5
:101610008AE00E9436098CB580618CBD8CB58064EF
:101620008CBD61E08DE00E94360961E08BE00E9494
:101630003609809164018F5F8093640199819FBF17
:1016400061E08091F7020E94360961E08091F70223
:101650000E94C40580ED0E947B08883519F0803611
:1016600009F0B8C189E80E947B08898388E80E9454
:101670007B08E9812E2F30E0322F2227280F311DE1
:1016800030930503209304038BE80E947B08898331
:101690008AE80E947B08F9812F2F30E0322F222721
:1016A000280F311D30930703209306038DE80E9415
:1016B0007B0889838CE80E947B084981242F30E0D5
:1016C000322F2227280F311D30930903209308035E
:1016D0008FE80E947B0889838EE80E947B089981AD
:1016E000292F30E0322F2227280F311D30930B0392
:1016F00020930A0381E90E947B08898380E90E9484
:101700007B08E9812E2F30E0322F2227280F311D50
:1017100030930D0320930C0383E90E947B08898397
:1017200082E90E947B08F9812F2F30E0322F222797
:10173000280F311D30930F0320930E0385E90E947B
:101740007B08898384E90E947B084981242F30E04B
:10175000322F2227280F311D3093110320931003BD
:1017600087E90E947B08898386E90E947B0899812A
:10177000292F30E0322F2227280F311D30931303F9
:101780002093120389E90E947B08898388E90E94DB
:101790007B08E9812E2F30E0322F2227280F311DC0
:1017A00030931503209314038BE90E947B088983EF
:1017B0008AE90E947B08F9812F2F30E0322F2227FF
:1017C000280F311D30931703209316038DE90E94D3
:1017D0007B0889838CE90E947B084981242F30E0B3
:1017E000322F2227280F311D30931903209318031D
:1017F0008FE90E947B0889838EE90E947B0899818A
:10180000292F30E0322F2227280F311D30931B0360
:1018100020931A0381EA0E947B0880931C0382EEC6
:101820000E947B08898381EE0E947B08E9812E2F2C
:1018300030E0322F2227280F311D30931E032093D2
:101840001D0383EE0E947B0880931F0384EE0E9499
:101850007B08898385EE0E947B088F7090E0298148
:10186000F0E12F9F800D911D11249093210380930F
:10187000200386EE0E947B08898385EE0E947B0808
:1018800082958F7090E0498130E1439F800D911DDA
:101890001124909323038093220387EE0E947B08F8
:1018A000809324038091FB028983883008F0198299
:1018B00085EF0E947B08E98190E2E99F9001112465
:1018C0008F71682F622B85EF0E94D308F091FC0284
:1018D000F983F83008F0198285EF0E947B0899811E
:1018E00044E0949F90011124837E682F622B85EF42
:1018F0000E94D308E091FE02E13130F4F0E0EE5FA7
:10190000FE4F2081298302C031E0398384EF0E9499
:101910007B088B8380E00E94270984EF0E947B086C
:10192000998144E0949F90011124837E682F622B5B
:1019300084EF0E94D3088B8183700E942709E09175
:10194000FF02E13130F4F0E0EE5FFE4F20812983A9
:1019500002C031E0398384EF0E947B088B8380E0F2
:101960000E94270982EF0E947B08887F6981682B8B
:1019700082EF0E94D3088B8183700E942709E09137
:10198000FD02E13130F4F0E0EE5FFE4F408149832B
:1019900002C081E0898384EF0E947B088B8380E012
:1019A0000E94270984EF0E947B08E98190E2E99F69
:1019B000900111248F71682F622B84EF0E94D3084D
:1019C0008B8183700E94270983E00E94270980EDA4
:1019D0000E947B0820E230E03A832983C12CD12C7D
:1019E00076010E9474069B01AC01C701B6010E94FA
:1019F0000A116B017C016AE070E080E090E00E94D7
:101A0000720989819A8101979A838983892B49F781
:101A100020E030E040E05DE3C701B6010E945513CD
:101A2000609385017093860180938701909388016C
:101A30008090890190908A01A0908B01B0908C01D8
:101A400040908501509086016090870170908801D8
:101A500004E711E0E5E6F1E0F887EF8322E231E008
:101A60003E832D8383E191E09C838B83E1E3F1E06E
:101A7000FA83E983F12CE981FA81E190FA83E98321
:101A800061E08E2D0E94C4052E2D30E0F901E85F43
:101A9000FE4F8491F901EC50FF4FE490F901E052C0
:101AA000FF4FD490DD2079F081110E949B05ED2D30
:101AB000F0E0EE0FFF1FEE53FF4FA591B491EC91B4
:101AC000EE2281E009F480E0ED81FE81D190FE8379
:101AD000ED83EB81FC81E190FC83EB83D11003C0AB
:101AE000EE2009F473C0F801C080F1E0FC1520F489
:101AF000CA94F801C0826AC0EF81F8853080F1E0B5
:101B0000F31528F43A94EF81F88530825FC0811193
:101B100040C0A3019201C501B4010E940013181630
:101B2000E4F0C11039C164E26D0D4FE780E990E047
:101B30000E94FE0381E0F8018083EF81F8858081B7
:101B4000813009F029C164E26E0D40E080E890E048
:101B50000E94FE03EF81F8851AC031101DC164E2B6
:101B60006E0D4FE780E990E00E94FE0381E0EF8177
:101B7000F8858083F8018081813009F00DC164E22D
:101B80006D0D40E080E890E00E94FE03F8011082B5
:101B900003C1F1E0CF1209C064E26D0D40E080E8BE
:101BA00090E00E94FE03F8011082EF81F8858081A9
:101BB000813009F0EFC064E26E0D40E080E890E013
:101BC0000E94FE03EF81F8851082E4C08095817049
:101BD000F80E0F5F1F4F2F8138852F5F3F4F3887DB
:101BE0002F8380E491E0E981FA818E179F0709F045
:101BF00042CFF11026C020E030E046EC52E4609184
:101C000085017091860180918701909188010E94E1
:101C100055132091890130918A0140918B01509197
:101C20008C010E940A1120E030E048EC52E40E944E
:101C3000761160938501709386018093870190935C
:101C4000880120910001309101013A83298310928B
:101C5000890110928A0110928B0110928C0104E08C
:101C600010E00E9474062091890130918A01409110
:101C70008B0150918C010E940A116093890170932D
:101C80008A0180938B0190938C010150110949F7CF
:101C900020E030E040E85EE30E9455136093890144
:101CA00070938A0180938B0190938C012091850120
:101CB0003091860140918701509188010E9409115D
:101CC0006B017C0120E030E0A9010E94001318168E
:101CD0001CF4C701B60103C0C701B60190580E94A9
:101CE000E811072E000C880B990B0E94261220E0A9
:101CF00030E046E953E40E9476110E940D1320E083
:101D000030E040E050E40E940A1120E030E048EA70
:101D100051E40E9455130E94E811685D7F4F6038BE
:101D200071052CF4709384016093830106C08FE7E2
:101D300090E090938401809383018091830190913E
:101D40008401449734F4E4E1F0E0F0938401E093FB
:101D500083018091830190918401873091052CF457
:101D6000109201011092000104C090930101809330
:101D70000001409100015091010129813A8124170D
:101D8000350729F06BE080EB90E00E94FE030E9493
:101D9000BF014ECE80E01CCF81E01ACFCF93DF93FE
:101DA000C9EDD3E01B821A8248EE53E060E070E098
:101DB0004C835D836E837F8384E491E09983888381
:101DC000A1EAB1E013961C921E92129714964D93BD
:101DD0005D936D937C93179786E591E011969C93A4
:101DE0008E9385EC90E01D969C938E931C9784ECCB
:101DF00090E01F969C938E931E9780EC90E05196F6
:101E00009C938E93509781EC90E053969C938E9385
:101E1000529782EC90E055969C938E93549786EC63
:101E200090E057969C938E93569759961C9259978B
:101E30005A961C925A975B961C925B975C961C92E2
:101E40005C97E5EFF2E082E5838381E0848384ABF5
:101E500040E856EE65EC77E447AB50AF61AF72AF48
:101E6000108297E79183D6ABC5AB9AE0928393E05B
:101E700095831682178280878187828713861486CE
:101E800015861686EEE3F2E0B093F402A093F30217
:101E90001182108213821282158214821782168296
:101EA0001186108613861286158614861786168666
:101EB000118A108A138A128A158A148A178A168A36
:101EC000118E108E138E128E158E148E178E168E06
:101ED00011A210A213A212A2DF91CF910895DF9355
:101EE000CF931F930F939A9DF02D219FF00D8B9D03
:101EF000F00D8A9DE02DF10D039FF00D029FE00D86
:101F0000F11D4E9DE00DF11D5E9DF00D4F9DF00DFC
:101F10007F936F93BF92AF925F934F93D5010E94CF
:101F2000FA108B01AC01D7010E94FA10EB01E80F07
:101F3000F91FD6010E94BF0F2F913F91D6010E9439
:101F4000FA10C60FD71FE81FF91FAF91BF910E946B
:101F5000BF0F2F913F910E94FA10C60FD71FE81FA5
:101F6000F91FD6010E94FA10E60FF71F9801BE0173
:101F7000CF0111240F911F91CF91DF9108950E94FD
:101F8000FA10460F571FC81FD91F08F4319608953D
:101F9000689401C0E894F92FF12B12F00C94FC0F17
:101FA000A0E0B0E0E6EDFFE00C946E10092E059481
:101FB00022F40E945810112392F4F0E80F26FFEF4C
:101FC000E094F09400951095B094C094D094A194AE
:101FD000BF0ACF0ADF0AEF0AFF0A0F0B1F0B0E948E
:101FE000071007FC0E945810CDB7DEB7ECE00C9448
:101FF0008A10689401C0E8948F929F92CF93DF93E8
:102000000E940710DF91CF919F908F9008958824B0
:102010009924F401E401B0E49F93AA279A158B0454
:102020009C04ED05FE05CF05D007A10798F4AD2F60
:10203000DC2FCF2FFE2FE92D982C892E982F872F5C
:10204000762F652F542F432F322F2227B85031F788
:10205000BF9127C01B2EBF91BB27220F331F441FE8
:10206000551F661F771F881F991F881C991CEE1F1C
:10207000FF1FCC1FDD1FAA1FBB1F8A149B04EC058A
:10208000FD05CE05DF05A007B10748F08A189B08BB
:10209000EC09FD09CE09DF09A00BB10B21601A94F0
:1020A000E1F62EF49401AF01BE01CD01000C0895BC
:1020B00060957095809590953095409550952195B7
:1020C0003F4F4F4F5F4F6F4F7F4F8F4F9F4F089541
:1020D0002F923F924F925F926F927F928F929F9238
:1020E000AF92BF92CF92DF92EF92FF920F931F9326
:1020F000CF93DF93CDB7DEB7CA1BDB0B0FB6F894D7
:10210000DEBF0FBECDBF09942A88398848885F8416
:102110006E847D848C849B84AA84B984C884DF8087
:10212000EE80FD800C811B81AA81B981CE0FD11D6B
:102130000FB6F894DEBF0FBECDBFED0108950F932B
:10214000083090F0982F872F762F652F542F432F2C
:10215000322F22270850F4CF220F331F441F551F60
:10216000661F771F881F991F0A95B2F70F91089570
:1021700097FB10F8169400080F93083098F0085059
:10218000232F342F452F562F672F782F892F902DEF
:10219000F4CF0594979587957795679557954795CB
:1021A000379527950A95AAF70F9108952A0D3B1D9B
:1021B0004C1D5D1D6E1D7F1D801F911F08952A19E6
:1021C0003B094C095D096E097F09800B910B08954D
:1021D0000024A7FD00942A1730054005500560052E
:1021E0007005800590050895EE0FFF1F0590F4918E
:1021F000E02D0994A29FB001B39FC001A39F700D71
:10220000811D1124911DB29F700D811D1124911DFE
:1022100008955058BB27AA270E9421110C94C6127A
:102220000E94B81238F00E94BF1220F039F49F3F8C
:1022300019F426F40C94A5120EF4E095E7FB0C9427
:102240009F12E92F0E94D71258F3BA17620773073B
:102250008407950720F079F4A6F50C94F9120EF492
:10226000E0950B2EBA2FA02D0B01B90190010C01A6
:10227000CA01A0011124FF27591B99F0593F50F4BE
:10228000503E68F11A16F040A22F232F342F442716
:10229000585FF3CF469537952795A795F04053950E
:1022A000C9F77EF41F16BA0B620B730B840BBAF0DE
:1022B0009150A1F0FF0FBB1F661F771F881FC2F749
:1022C0000EC0BA0F621F731F841F48F4879577955D
:1022D0006795B795F7959E3F08F0B0CF9395880F17
:1022E00008F09927EE0F9795879508950E948A1117
:1022F0000C94C6120E94BF1258F00E94B81240F00F
:1023000029F45F3F29F00C949F1251110C94FA129A
:102310000C94A5120E94D71268F39923B1F35523A8
:1023200091F3951B550BBB27AA27621773078407E8
:1023300038F09F5F5F4F220F331F441FAA1FA9F37E
:1023400035D00E2E3AF0E0E832D091505040E6956C
:10235000001CCAF72BD0FE2F29D0660F771F881FCD
:10236000BB1F261737074807AB07B0E809F0BB0BC0
:10237000802DBF01FF2793585F4F3AF09E3F5105D4
:1023800078F00C949F120C94FA125F3FE4F3983E9D
:10239000D4F3869577956795B795F7959F5FC9F7BD
:1023A000880F911D9695879597F90895E1E0660F3E
:1023B000771F881FBB1F621773078407BA0720F0B7
:1023C000621B730B840BBA0BEE1F88F7E095089520
:1023D0000E94EF116894B1110C94FA1208950E94B2
:1023E000DF1288F09F5798F0B92F9927B751B0F0B6
:1023F000E1F0660F771F881F991F1AF0BA95C9F789
:1024000014C0B13091F00E94F912B1E008950C941B
:10241000F912672F782F8827B85F39F0B93FCCF3CE
:10242000869577956795B395D9F73EF49095809505
:10243000709561957F4F8F4F9F4F089597FB16F4CE
:102440000E94A8120C946212E89409C097FB3EF413
:1024500090958095709561957F4F8F4F9F4F9923F1
:10246000A9F0F92F96E9BB279395F695879577956F
:102470006795B795F111F8CFFAF4BB0F11F460FF2F
:102480001BC06F5F7F4F8F4F9F4F16C0882311F087
:1024900096E911C0772321F09EE8872F762F05C09B
:1024A000662371F096E8862F70E060E02AF09A9536
:1024B000660F771F881FDAF7880F9695879597F92B
:1024C0000895E894F92F96EBFF2381F01216130676
:1024D0001406440B9395F6958795779567955795D0
:1024E0004040FF23B9F71BC099270895882351F472
:1024F0009850D2F7872B762F652F542F432F322FEA
:1025000020E0B1F3121613061406440B88233AF0A8
:102510009A95440F551F661F771F881FCAF75523CA
:102520004AF4440F551F11F460FF04C06F5F7F4FE2
:102530008F4F9F4F880F9695879597F9089597F934
:102540009F6780E870E060E008959FEF80EC089559
:102550009095809570956095509540953095219512
:102560003F4F4F4F5F4F6F4F7F4F8F4F9F4F08959C
:1025700000240A9416161706180609060895002462
:102580000A9412161306140605060895092E0394DC
:10259000000C11F4882352F0BB0F40F4BF2B11F450
:1025A00060FF04C06F5F7F4F8F4F9F4F089557FDAF
:1025B0009058440F551F59F05F3F71F04795880FB1
:1025C00097FB991F61F09F3F79F087950895121648
:1025D00013061406551FF2CF4695F1DF08C01616F4
:1025E00017061806991FF1CF8695710561050894A5
:1025F0000895E894BB2766277727CB0197F90895BC
:102600000E94C21308F48FEF089516F00C94E6139D
:102610000C94A51268940C949F120E94DF12A8F3E8
:102620009923C1F3AEF3DF93CF931F930F93FF92E0
:10263000C92FDD2788232AF02197660F771F881F6F
:10264000DAF720E030E040E85FEB9FE3883920F0E4
:10265000803E38F021968F770E940A11E8E6F0E07C
:1026600004C00E940A11E5E9F0E00E94F4138B0116
:10267000BE01EC01FB2E6F5771097595771F880B12
:10268000990B0E94261228E132E741E35FE30E94A2
:102690006813AF2D9801AE01FF900F911F91CF915C
:1026A000DF910E9421110C94C6120E9468130C94B1
:1026B000C6120E94B81238F00E94BF1220F0952373
:1026C00011F00C949F120C94A51211240C94FA1280
:1026D0000E94D71270F3959FC1F3950F50E0551FDC
:1026E000629FF001729FBB27F00DB11D639FAA2767
:1026F000F00DB11DAA1F649F6627B00DA11D661FB6
:10270000829F2227B00DA11D621F739FB00DA11DD6
:10271000621F839FA00D611D221F749F3327A00D90
:10272000611D231F849F600D211D822F762F6A2F2C
:1027300011249F5750409AF0F1F088234AF0EE0F91
:10274000FF1FBB1F661F771F881F91505040A9F7BE
:102750009E3F510580F00C949F120C94FA125F3F3B
:10276000E4F3983ED4F3869577956795B795F795FA
:10277000E7959F5FC1F7FE2B880F911D9695879572
:1027800097F90895990F0008550FAA0BE0E8FEEF9E
:1027900016161706E807F907C0F012161306E40725
:1027A000F50798F0621B730B840B950B39F40A261E
:1027B00061F0232B242B252B21F408950A2609F4FC
:1027C000A140A6958FEF811D811D08959F3F31F097
:1027D000915020F4879577956795B795880F911D4F
:1027E0009695879597F90895DF93CF931F930F934D
:1027F000FF92EF92DF927B018C01689406C0DA2E83
:10280000EF010E946813FE01E894A591259135918E
:1028100045915591A6F3EF010E942111FE01970108
:10282000A801DA9469F7DF90EF90FF900F911F9164
:10283000CF91DF91089581E090E0F8940C942014FA
:04284000F894FFCF3A
:102844007F000001020103010101040101010101F2
:10285400010105000407090C100D1514131A1317B0
:10286400000E07050B0A0E110F1316151C15180080
:102874001202030405060708090A0B0C0E0F1011B7
:102884000000000086035903E4002D0351033D03B7
:102894002E03000000005001B900E7009D0118015B
:0428A400F6000A012F
:00000001FF
