:100000000C94A3000C94CB000C94CB000C94CB006C
:100010000C94CB000C94CB000C94CB000C94CB0034
:100020000C94CB000C94CB000C94CB000C94CB0024
:100030000C94CB000C94CB000C94CB000C94CB0014
:100040000C9404020C94CB000C9474020C944E0299
:100050000C94CB000C94CB000C94CB000C94CB00F4
:100060000C9481040C94CB0007634236B79BD8A74D
:100070001A39685618AEBAAB558C1D3CB7CC5763CD
:10008000BD6DEDFD753EF6177231BF000000803F7B
:1000900008000000BE922449123EABAAAA2ABECD97
:1000A000CCCC4C3E00000080BEABAAAAAA3E000009
:1000B0000000BF000000803F000000000008417801
:1000C000D3BB4387D1133D190E3CC3BD4282AD2B38
:1000D0003E68EC8276BED98FE1A93E4C80EFFFBE30
:1000E00001C4FF7F3F00000000000000000023006B
:1000F0002600290000000000240027002A0000003C
:100100000000250028002B00040404040404040457
:1001100002020202020203030303030301020408B2
:100120001020408001020408102001020408102061
:1001300000000008000201000003040700000000A6
:1001400000000000210F11241FBECFEFD8E0DEBF5A
:10015000CDBF11E0A0E0B1E0E4EFFAE202C005900B
:100160000D92A436B107D9F723E0A4E6B1E001C0AF
:100170001D92A13EB207E1F710E0C3EAD0E004C04F
:100180002197FE010E944711C23AD107C9F70E9488
:10019000C0090C9478150C940000CF92DF92EF9276
:1001A000FF920F931F93CF93DF936C017A018B0122
:1001B000C0E0D0E0CE15DF0581F0D8016D918D0152
:1001C000D601ED91FC910190F081E02DC6010995D9
:1001D000892B11F02196EECF7E01C701DF91CF91DF
:1001E0001F910F91FF90EF90DF90CF9008950895A9
:1001F00080E090E00895FC01538D448D252F30E080
:10020000842F90E0821B930B541710F0CF96089523
:1002100001970895FC01918D828D981761F0828D70
:10022000DF01A80FB11D5D968C91928D9F5F9F732A
:10023000928F90E008958FEF9FEF0895FC01918DCC
:10024000828D981731F0828DE80FF11D858D90E039
:1002500008958FEF9FEF0895FC01918D228D892FD6
:1002600090E0805C9F4F821B91098F7399270895BE
:100270008DE991E00E942C0121E0892B09F420E016
:10028000822F0895FC01848DDF01A80FB11DA35AB0
:10029000BF4F2C91848D90E001968F739927848FA6
:1002A000A689B7892C93A089B1898C9183708064C9
:1002B0008C93938D848D981306C00288F389E02D6A
:1002C00080818F7D80830895EF92FF920F931F931B
:1002D000CF93DF93EC0181E0888F9B8D8C8D9813F9
:1002E00005C0E889F989808185FD26C0F62E0B8D31
:1002F00010E00F5F1F4F0F731127E02E8C8DE81257
:100300000CC00FB607FCFACFE889F989808185FF18
:10031000F5CFCE010E944201F1CF8B8DFE01E80F97
:10032000F11DE35AFF4FF0829FB7F8940B8FEA89D3
:10033000FB89808180620AC09FB7F894EE89FF89AB
:100340006083E889F98980818370806480839FBF9E
:1003500081E090E0DF91CF911F910F91FF90EF909E
:100360000895CF93DF93EC01888D8823C9F0EA8943
:10037000FB89808185FD05C0A889B9898C9186FD9E
:100380000FC00FB607FCF5CF808185FFF2CFA8899B
:10039000B9898C9185FFEDCFCE010E944201E7CF54
:1003A000DF91CF91089580E090E0892B29F00E94A1
:1003B000380181110C94000008950E9473153FB715
:1003C000F89480918E0190918F01A0919001B0914D
:1003D000910126B5A89B05C02F3F19F00196A11DDC
:1003E000B11D3FBFBA2FA92F982F8827820F911DCB
:1003F000A11DB11DBC01CD0142E0660F771F881F12
:10040000991F4A95D1F708951F920F920FB60F9238
:1004100011242F933F938F939F93AF93BF9380911A
:100420008A0190918B01A0918C01B0918D01309146
:10043000890123E0230F2D3720F40196A11DB11D62
:1004400005C026E8230F0296A11DB11D2093890146
:1004500080938A0190938B01A0938C01B0938D01BE
:1004600080918E0190918F01A0919001B0919101A6
:100470000196A11DB11D80938E0190938F01A093D1
:100480009001B0939101BF91AF919F918F913F9156
:100490002F910F900FBE0F901F9018951F920F92E3
:1004A0000FB60F9211242F933F934F935F936F9347
:1004B0007F938F939F93AF93BF93EF93FF938DE9B8
:1004C00091E00E944201FF91EF91BF91AF919F9106
:1004D0008F917F916F915F914F913F912F910F90ED
:1004E0000FBE0F901F9018951F920F920FB60F928C
:1004F00011242F938F939F93EF93FF93E091AD017E
:10050000F091AE018081E091B301F091B40182FDE0
:1005100012C090818091B6018F5F8F732091B701D7
:10052000821751F0E091B601F0E0E356FE4F958F4F
:100530008093B60101C08081FF91EF919F918F91CF
:100540002F910F900FBE0F901F90189508958EBD9C
:1005500000000DB407FEFDCF8EB508958CBD9DBD86
:100560000895282F30919C01313208F04AC08091C3
:100570009A018111FCCF9091D40342E040939A01FB
:10058000209399012FEF2093B2031092B10330937F
:10059000B003E4EBF3E0A0E9B3E020E0321721F090
:1005A00041914D932F5FFACF10928F0320918F03CB
:1005B000990F922B90938F0390919801913061F451
:1005C0001092980190918F039093BB009091BC0082
:1005D00093FDF8CF95EC01C095EE9093BC009091FF
:1005E0009A019230E1F39091B2039F3F79F08091AC
:1005F000B203803241F08091B203803331F084E065
:1006000005C081E003C082E001C083E010929B013D
:1006100010929C011092B303089585ED8093BC0065
:100620008091BC0084FDFCCF10929A010895409106
:100630004C03262F30E0240F311D21323105DCF42C
:1006400020919A012430C9F4FC0180E090E08617E3
:1006500058F430914C032191DC01A45DBC4FA30FF1
:10066000B11D2C930196F3CF80914C03680F6093DA
:100670004C0380E0089581E0089582E00895089594
:1006800008950895E091970180919601E81730F45C
:10069000F0E0E159FC4F808190E008958FEF9FEFEB
:1006A00008959091970180919601981750F4E92F41
:1006B000F0E0E159FC4F208130E09F5F909397017B
:1006C00002C02FEF3FEFC90108958091960190E09D
:1006D00020919701821B91090895CF92DF92EF92AA
:1006E000FF920F931F93CF93DF937C01CB018A017D
:1006F0002091B303222389F0EB016B01C40ED51EB8
:10070000CC15DD0569F06991D701ED91FC9101905F
:10071000F081E02DC7010995F3CF642F0E941703E4
:10072000C801DF91CF911F910F91FF90EF90DF9063
:10073000CF900895CF93DF931F92CDB7DEB7698333
:100740002091B3032223D1F020919C01203240F06C
:1007500021E030E0FC013383228380E090E015C08B
:1007600080919B01E82FF0E0EC54FC4F998190833D
:100770008F5F80939B0180939C0105C061E0CE0157
:1007800001960E94170381E090E00F90DF91CF91D6
:10079000089580919A018111FCCF413208F040E226
:1007A00081E080939A01809399019FEF9093B20327
:1007B0001092B103940F9093B00380938F038091B4
:1007C0008F03660F682B60938F03809198018130AF
:1007D00061F41092980180918F038093BB00809107
:1007E000BC0083FDF8CF85EC01C085EE8093BC0092
:1007F00080919A018130E1F38091B103841710F464
:100800004091B103E0E9F3E0AFE6B3E080E08417A4
:1008100021F091919D938F5FFACF10929701809371
:10082000960108950F931F93CF93DF93803891051E
:100830001CF41092600260C0142FEC01813E9105FF
:10084000ACF5062F0F77809160028C1771F0C09382
:1008500060028091EF029091F002DC01ED91FC9139
:100860000190F081E02D6C2F09958091EF0290911D
:10087000F002DC01ED91FC910190F081E02D602F00
:100880000995CF7EC03CD105B9F18091EF029091DE
:10089000F002612F6F77DC01ED91FC910190F08106
:1008A000E02DDF91CF911F910F910994865F9109FF
:1008B0000A9710F5CD3FD10550F4CA3FD10560F439
:1008C000C63FD10549F0C83FD10591F405C0CE011E
:1008D0008E5F9109029760F48091EF029091F0028F
:1008E000DC01ED91FC910190F081E02D6C2F0995D8
:1008F000C63FD10509F49DCFDF91CF911F910F9194
:1009000008951F920F920FB60F9211242F933F93C9
:100910004F935F936F937F938F939F93AF93BF9307
:10092000EF93FF938091B900887F803609F49CC0D3
:1009300068F5883209F45BC090F4803109F454C042
:1009400038F4882309F4F6C0883009F44DC0F6C0A5
:10095000883109F44CC0803209F45DC0EFC08034A6
:1009600009F468C048F4803309F455C0883309F0AD
:10097000E5C08093B203D8C0803509F44FC08835F4
:1009800009F45DC0883409F0D9C0D6C0883909F4AB
:10099000C7C0A8F4883709F467C038F4883609F46A
:1009A00063C0803709F460C0C9C0883809F4B8C092
:1009B000803909F45FC0803809F0C0C05BC0803B5B
:1009C00009F486C038F4803A09F466C0883A09F41C
:1009D0007FC0B4C0803C09F4A7C0883C09F4A4C01F
:1009E000883B09F48AC0AAC080918F0310C09091FF
:1009F000B1038091B003981770F5E091B10381E0E5
:100A00008E0F8093B103F0E0E057FC4F808180931C
:100A1000BB0085EC86C08093B2038EC0E091B10329
:100A200081E08E0F8093B1038091BB00F0E0E0572E
:100A3000FC4F80839091B1038091B0036EC0E09130
:100A4000B10381E08E0F8093B1038091BB00F0E091
:100A5000E057FC4F80838091990181116DC081E046
:100A60008093980184EA61C083E080939A01109298
:100A70006E03CFCF80916E03803208F051C0E091B9
:100A80006E0381E08E0F80936E038091BB00F0E0D7
:100A9000E25BFC4F8083BDCF85EC8093BC0010925D
:100AA0009A0180916E03803230F4E0916E03F0E0A1
:100AB000E25BFC4F108260916E0370E0E091940164
:100AC000F09195018EE493E0099510926E0336C083
:100AD00084E080939A0110924D0310924C03E091B0
:100AE0009201F0919301099580914C03811105C009
:100AF00081E080934C0310922C03E0914D0381E040
:100B00008E0F80934D03F0E0E45DFC4F8081809375
:100B1000BB0090914D0380914C03981708F479CF56
:100B200085E88093BC000AC085EC8093BC001092DD
:100B30009A0104C01092B2030E940D03FF91EF913D
:100B4000BF91AF919F918F917F916F915F914F91E5
:100B50003F912F910F900FBE0F901F9018958330EB
:100B600081F028F4813099F08230A1F00895873027
:100B7000A9F08830B9F08430D1F4809180008F7D65
:100B800003C0809180008F7780938000089584B5A2
:100B90008F7702C084B58F7D84BD08958091B000A9
:100BA0008F7703C08091B0008F7D8093B00008954F
:100BB0001F93CF93DF93282F30E0F901E05DFE4FC4
:100BC0008491F901E45EFE4FD491F901E85FFE4F94
:100BD000C491CC23C1F0162F81110E94AF05EC2FD8
:100BE000F0E0EE0FFF1FE250FF4FA591B4919FB7C9
:100BF000F894111104C08C91D095D82302C0EC91C7
:100C0000DE2BDC939FBFDF91CF911F9108950F934F
:100C10001F93CF93DF93EC01062F142F8091F102E5
:100C20008823B9F0813009F06EC08091F402909170
:100C3000F5020E94AE0260E08091F3020E94D805A6
:100C4000802F80680E94A702CE01810F911D8C0128
:100C500047C080912503813009F055C09091F20280
:100C60008093B3039093D40310929B0110929C0144
:100C70008091260390912703DC01ED91FC91019076
:100C8000F081E02D099581E00E94B102412F609131
:100C9000F20280912603909127030E94C903CE019E
:100CA000810F911D8C018091260390912703DC0117
:100CB000ED91FC910084F185E02D0995892B19F1C6
:100CC000C017D10701F18091260390912703DC0121
:100CD000ED91FC910284F385E02D09958993E3CF92
:100CE000C017D10729F080E00E94A7028993F8CFAE
:100CF00061E08091F3020E94D805DF91CF911F91AE
:100D00000F910C94A602DF91CF911F910F9108953E
:100D10002F923F924F925F926F927F928F929F920B
:100D2000AF92BF92CF92DF92EF92FF920F931F93F9
:100D3000CF93DF93CDB7DEB76A970FB6F894DEBFD7
:100D40000FBECDBF43E067EFCE0101960E940706BC
:100D50008091210390912203A0912303B091240359
:100D60006C017D01FF0CCC08DC2C76019C01AD01EF
:100D70006C2D7C2D8C2D9C2D345F414051096109D7
:100D80007109810991092C873D874E875F87688BA0
:100D9000772E4C0159016A01E62EF72E8C010E9434
:100DA000C20F622E532E442E352E262E788F898F19
:100DB0009A8F3091090320910803932F990F990B73
:100DC000492F592F692F792F892F0E94C20F0CE0CC
:100DD0000E94F2102C83398B4A8B5B8B6C8B7D8B42
:100DE0008E8B9F8B30910B0320910A03932F990FC9
:100DF000990BA62CB52CC42CD32CE22CF88C098D85
:100E00001A8D492F592F692F792F892F0E94C20FD0
:100E100008E00E940B11AC80B988CA88DB88EC8896
:100E2000FD880E891F890E94291170588F4F9F4F8E
:100E3000E0910603F09107035F01C12CD12CE12C56
:100E4000F12C8701EC83BD82CE82DF82E886F986B1
:100E50000A871B87C12CD12CE12CF12C00E010E07B
:100E60000E94C20F01E20E940B112C83398B4A8B26
:100E70005B8B6C8B7D8B8E8B9F8BA0E00E943B11DC
:100E800009F431C13091110320911003932F990F70
:100E9000990BA62CB52CC42CD32CE22CF88C098DE4
:100EA0001A8D492F592F692F792F892F0E94C20F30
:100EB00019012A01662E788F898F9A8F30910F033E
:100EC00020910E03932F990F990BAC84BD84CE848F
:100ED000DF84E888F72C8401492F592F692F792F57
:100EE000892F0E94C20F01E10E94F210510162019C
:100EF000E62CF88C098D1A8D0E94291159016A017E
:100F00007B01182F392E4A8150E060E070E084E0C8
:100F1000440F551F661F771F8A95D1F78B818295E5
:100F20008F702A013B01482A498150E060E070E05F
:100F3000DB01CA012CE0880F991FAA1FBB1F2A954D
:100F4000D1F7B301A201482B592B6A2B7B2B80E0F0
:100F500090E0A0E1B0E0841B950BA60BB70B2C0131
:100F60003D01770C4408542C32019C01AD01642DE5
:100F7000742D842D942D0FE10E94F21039014A0145
:100F8000B62FA72FF82FE92F30910D0320910C03D6
:100F9000932F990F990B492F592F692F792F892F4B
:100FA00003E20E94F210012F132D0E942911590112
:100FB0006A017B018C019301A4016B2F7A2F8F2F83
:100FC0009E2F0E943211E5E3AE2EFCE0BF2EC12C15
:100FD000D12CE12CF12C00E010E00E94C20FAC807B
:100FE000B988CA88DB88EC88FD880E891F890E9431
:100FF0001D102C873D874E875F87688B7C83898B8C
:101000009A8B0DE00E940B11922E832E742E652E6A
:10101000562E472E382E292E309117032091160375
:10102000932F990F990BA92CB82CC72CD62CE52CF3
:10103000F42C032D122D492F592F692F792F892F29
:101040000E94C20F0E94C20F09E10E940B11AC84E2
:10105000BD84CE84DF84E888FC8009891A890E94D7
:10106000291119012A013B014C01309115032091EE
:101070001403932F990F990B492F592F692F792F0B
:10108000892F0E94C20F03E10E940B1159016A01CE
:101090007B018C019101A201B301C4010E942911BD
:1010A00008E00E940B1159016A017B01E82F192FFA
:1010B0003091130320911203932F990F990B492F0D
:1010C000592F692F792F892F04E00E94F2100E2FDB
:1010D0000E9429110E94761220E030E040E85BE394
:1010E0000E94441303C060E070E0CB016A960FB623
:1010F000F894DEBF0FBECDBFDF91CF911F910F914E
:10110000FF90EF90DF90CF90BF90AF909F908F9027
:101110007F906F905F904F903F902F900895CF9366
:10112000DF931F92CDB7DEB7682F19828091F1024D
:10113000882349F0813009F045C041E0CE01019695
:101140000E9407063FC0809125038130D9F5909118
:10115000F2028093B3039093D40310929B011092F8
:101160009C018091260390912703DC01ED91FC9175
:101170000190F081E02D099581E00E94B10241E0EB
:101180006091F20280912603909127030E94C90387
:101190008091260390912703DC01ED91FC9100845E
:1011A000F185E02D0995892B69F0809126039091B6
:1011B0002703DC01ED91FC910284F385E02D099574
:1011C0008983E6CF89810F90DF91CF910895CF93E6
:1011D000DF93D82FC62F8091F1028823F1F0813060
:1011E00009F046C08091F4029091F5020E94AE028F
:1011F00060E08091F3020E94D8058D2F8F770E94C6
:10120000A7028C2F0E94A70261E08091F3020E9446
:10121000D805DF91CF910C94A602809125038130EF
:1012200039F59091F2028093B3039093D403109216
:101230009B0110929C018091260390912703DC0171
:10124000ED91FC910190F081E02D6D2F0995809139
:10125000260390912703DC01ED91FC910190F08130
:10126000E02D6C2F099581E0DF91CF910C94B102B4
:10127000DF91CF910895CF93C82F843008F0C0E05C
:1012800084EF0E948F088C7F682F6C2B84EFCF91A6
:101290000C94E708CF93DF9390E0FC01E45EFE4FEF
:1012A0002491FC01E85FFE4F8491882361F190E076
:1012B000880F991FFC01EC50FF4FC591D491FC01A0
:1012C000E250FF4FA591B491611109C09FB7F89406
:1012D0008881209582238883EC912E230BC0623075
:1012E00061F49FB7F8948881322F309583238883E7
:1012F000EC912E2B2C939FBF06C08FB7F894E881FA
:101300002E2B28838FBFDF91CF9108958F929F92CC
:10131000AF92BF92CF92DF92EF92FF926B017C016E
:101320000E94DF014B015C01C114D104E104F1040E
:10133000F1F00E94DF01DC01CB0188199909AA09AB
:10134000BB09883E9340A105B10570F321E0C21AA4
:10135000D108E108F10888EE880E83E0981EA11CF0
:10136000B11CC114D104E104F10419F7DDCFFF90E1
:10137000EF90DF90CF90BF90AF909F908F900895A7
:10138000CF93DF93CDB7DEB728970FB6F894DEBFC3
:101390000FBECDBF789484B5826084BD84B5816072
:1013A00084BD85B5826085BD85B5816085BD809130
:1013B0006E00816080936E001092810080918100A8
:1013C00082608093810080918100816080938100A0
:1013D000809180008160809380008091B100846062
:1013E0008093B1008091B00081608093B0008091C3
:1013F0007A00846080937A0080917A008260809382
:101400007A0080917A00816080937A0080917A00DE
:10141000806880937A001092C100E091EF02F09111
:10142000F002A089B18922E02C93A485B5851C9295
:10143000A685B7858FE38C93108EA489B58996E035
:101440009C93A289B3898C9180618C93A289B38982
:101450008C9188608C93A289B3898C9180688C93DD
:101460000288F389E02D80818F7D808331E0309385
:1014700061021092600210925F0210926802109254
:10148000670210926602109265021092EE021092AC
:101490006B0210926A021092690210926C02109212
:1014A0006D0280915E0281708260816080935E0235
:1014B000E091AD01F091AE012083E091A901F0919E
:1014C000AA011082E091AB01F091AC0180E1808330
:1014D0001092B501E091B101F091B2019083E091D9
:1014E000AF01F091B001808180618083E091AF0114
:1014F000F091B001808188608083E091AF01F0912C
:10150000B001808180688083E091AF01F091B001EB
:1015100080818F7D808360E082E00E944A0961E0E3
:1015200082E00E94D80560E083E00E944A0961E001
:1015300083E00E94D80560E084E00E944A0961E0EF
:1015400084E00E94D80560E085E00E944A0961E0DD
:1015500085E00E94D80560E086E00E944A0961E0CB
:1015600086E00E94D80560E087E00E944A0961E0B9
:1015700087E00E94D80560E088E00E944A0961E0A7
:1015800088E00E94D80560E089E00E944A0961E095
:1015900089E00E94D80560E08AE00E944A0961E083
:1015A0008AE00E94D80560E08BE00E944A0961E071
:1015B0008BE00E94D80560E08CE00E944A0961E05F
:1015C0008CE00E94D80560E08DE00E944A0961E04D
:1015D0008DE00E94D80560E08EE00E944A0961E03B
:1015E0008EE00E94D80560E08FE00E944A0961E029
:1015F0008FE00E94D80560E080E10E944A0961E026
:1016000080E10E94D80560E081E10E944A0961E022
:1016100081E10E94D80560E082E10E944A0961E010
:1016200082E10E94D80560E083E10E944A0961E0FE
:1016300083E10E94D8051092F10286E78093F202BE
:1016400083E08093F6021092F7021092F80241E0D4
:101650004093F9024093FA024093FB026AE070E083
:1016600080E090E00E94860962E070E080E090E017
:101670000E9486098091F102882319F08130C9F116
:1016800077C080912503813009F072C010929701D4
:101690001092960110929B0110929C0110929A0157
:1016A000809399011092980161E082E10E94D8052F
:1016B00061E083E10E94D8058091B9008E7F80931C
:1016C000B9008091B9008D7F8093B90088E4809340
:1016D000B80085E48093BC008FE393E0909393017E
:1016E0008093920180E493E090939501809394011C
:1016F0003FC08FB78983F89480916401811127C01E
:10170000E2E1F1E08491E6E2F1E09491E82FF0E08B
:10171000EE0FFF1FEC50FF4FA591B491EC91E92320
:1017200021F461E08AE00E94D80561E08AE00E942D
:101730004A098CB580618CBD8CB580648CBD61E03C
:101740008DE00E944A0961E08BE00E944A09809185
:1017500064018F5F8093640199819FBF61E08091F4
:10176000F3020E944A0961E08091F3020E94D805C9
:1017700080ED0E948F08883519F0803609F0B8C1D5
:1017800089E80E948F08898388E80E948F08E98190
:101790002E2F30E0322F2227280F311D30930103E6
:1017A000209300038BE80E948F0889838AE80E94B7
:1017B0008F08F9812F2F30E0322F2227280F311D7B
:1017C00030930303209302038DE80E948F088983DE
:1017D0008CE80E948F084981242F30E0322F222785
:1017E000280F311D30930503209304038FE80E94D6
:1017F0008F0889838EE80E948F089981292F30E015
:10180000322F2227280F311D309307032093060320
:1018100081E90E948F08898380E90E948F08E9810D
:101820002E2F30E0322F2227280F311D309309034D
:101830002093080383E90E948F08898382E90E942C
:101840008F08F9812F2F30E0322F2227280F311DEA
:1018500030930B0320930A0385E90E948F08898344
:1018600084E90E948F084981242F30E0322F2227FB
:10187000280F311D30930D0320930C0387E90E943C
:101880008F08898386E90E948F089981292F30E08B
:10189000322F2227280F311D30930F0320930E0380
:1018A00089E90E948F08898388E90E948F08E9816D
:1018B0002E2F30E0322F2227280F311D30931103B5
:1018C000209310038BE90E948F0889838AE90E9484
:1018D0008F08F9812F2F30E0322F2227280F311D5A
:1018E00030931303209312038DE90E948F0889839C
:1018F0008CE90E948F084981242F30E0322F222763
:10190000280F311D30931503209314038FE90E9493
:101910008F0889838EE90E948F089981292F30E0F2
:10192000322F2227280F311D3093170320931603DF
:1019300081EA0E948F088093180382EE0E948F082C
:10194000898381EE0E948F08E9812E2F30E0322FAB
:101950002227280F311D30931A032093190383EE99
:101960000E948F0880931B0384EE0E948F08898356
:1019700085EE0E948F088F7090E02981F0E12F9F03
:10198000800D911D112490931D0380931C0386EEFE
:101990000E948F08898385EE0E948F0882958F7040
:1019A00090E0498130E1439F800D911D1124909377
:1019B0001F0380931E0387EE0E948F0880932003ED
:1019C0008091F7028983883008F0198285EF0E94A0
:1019D0008F08E98190E2E99F900111248F71682FAF
:1019E000622B85EF0E94E708F091F802F983F83046
:1019F00008F0198285EF0E948F08998144E0949F36
:101A000090011124837E682F622B85EF0E94E708E6
:101A1000E091FA02E13130F4F0E0EE5FFE4F208118
:101A2000298302C031E0398384EF0E948F088B83C1
:101A300080E00E943B0984EF0E948F08998144E076
:101A4000949F90011124837E682F622B84EF0E9463
:101A5000E7088B8183700E943B09E091FB02E13132
:101A600030F4F0E0EE5FFE4F2081298302C031E0C8
:101A7000398384EF0E948F088B8380E00E943B09AA
:101A800082EF0E948F08887F6981682B82EF0E9415
:101A9000E7088B8183700E943B09E091F902E131F4
:101AA00030F4F0E0EE5FFE4F4081498302C081E0F8
:101AB000898384EF0E948F088B8380E00E943B091A
:101AC00084EF0E948F08E98190E2E99F9001112440
:101AD0008F71682F622B84EF0E94E7088B818370DF
:101AE0000E943B0983E00E943B0980ED0E948F0821
:101AF00020E230E03A832983C12CD12C76010E9468
:101B000088069B01AC01C701B6010E945D116B0103
:101B10007C016AE070E080E090E00E9486098981A3
:101B20009A8101979A838983892B49F720E030E0D5
:101B300040E05DE3C701B6010E9444136093850154
:101B4000709386018093870190938801E4E0F0E030
:101B5000FA83E983C12CD12C76010E9488069B016F
:101B6000AC01C701B6010E945D116B017C012981A6
:101B70003A81215031093A832983232B71F720E0E0
:101B800030E040E85EE30E9444132B013C010E94D8
:101B900088064B015C01C0908501D0908601E090E1
:101BA0008701F0908801A70196010E94C9111816BB
:101BB0002CF0A5019401C701B6010CC0A701960144
:101BC000C501B4010E943F131816F4F4A701960151
:101BD000C501B4010E945C1123E333E343EB5FE3EF
:101BE0000E94B11320E030E04CE853E40E945D1104
:101BF00020E030E040E452E40E94CE110E94401206
:101C00007093660160936501809165019091660112
:101C10008038910534F08FE790E0909366018093CF
:101C200065018091650190916601873091052CF4E2
:101C3000109201011092000104C090930101809361
:101C4000000120900001E1E3F1E0FA83E98306E777
:101C500011E027E631E038872F8382E291E09C8310
:101C60008B83E3E1F1E0FE83ED83B12CE981FA811E
:101C7000A190FA83E98361E08A2D0E94D8052A2D7C
:101C800030E0F901E05DFE4F8491F901E45EFE4F22
:101C9000A490F901E85FFE4F9490992079F08111AA
:101CA0000E94AF05E92DF0E0EE0FFF1FE651FF4F58
:101CB000A591B491EC91AE2281E009F480E0EB8132
:101CC000FC819190FC83EB83ED81FE81A190FE83EA
:101CD000ED83911003C0AA2009F473C0F80180803D
:101CE000F1E0F81520F48A94F80180826AC0EF814F
:101CF000F8853080F1E0F31528F43A94EF81F88507
:101D000030825FC0811140C0A7019601C301B201BA
:101D10000E943F131816E4F0811091C064E2690D2F
:101D20004FE780E990E00E94120481E0F80180838F
:101D3000EF81F8858081813009F081C064E26A0D0D
:101D400040E080E890E00E941204EF81F8851AC01C
:101D5000311075C064E26A0D4FE780E990E00E949F
:101D6000120481E0EF81F8858083F8018081813061
:101D700009F065C064E2690D40E080E890E00E94EF
:101D80001204F80110825BC0F1E08F1209C064E216
:101D9000690D40E080E890E00E941204F801108292
:101DA000EF81F8858081813009F047C064E26A0DD7
:101DB00040E080E890E00E941204EF81F8851082F4
:101DC0003CC080958170B80E422D6BE080EB90E0B6
:101DD0000E9412040F5F1F4F2F8138852F5F3F4FE6
:101DE00038872F8389819A818054914009F03ECFB2
:101DF000B11020C020E030E046EC52E46091850153
:101E00007091860180918701909188010E9444130E
:101E1000A30192010E945D1120E030E048EC52E401
:101E20000E94CE1160938501709386018093870193
:101E3000909388010E94D30189CE80E0C4CF81E0D5
:101E4000C2CFCF93DF93C5EDD3E01B821A8248EE59
:101E500053E060E070E04C835D836E837F8384E4B5
:101E600091E099838883ADE9B1E013961C921E92AC
:101E7000129714964D935D936D937C93179786E517
:101E800091E011969C938E9385EC90E01D969C9327
:101E90008E931C9784EC90E01F969C938E931E97D4
:101EA00080EC90E051969C938E93509781EC90E05B
:101EB00053969C938E93529782EC90E055969C9308
:101EC0008E93549786EC90E057969C938E935697FA
:101ED00059961C9259975A961C925A975B961C9247
:101EE0005B975C961C925C97E1EFF2E082E583835E
:101EF00081E0848384AB40E856EE65EC77E447AB41
:101F000050AF61AF72AF108297E79183D6ABC5AB8C
:101F10009AE0928393E09583168217828087818767
:101F200082871386148615861686EAE3F2E0B0935C
:101F3000F002A093EF0211821082138212821582A6
:101F400014821782168211861086138612861586D1
:101F5000148617861686118A108A138A128A158AA1
:101F6000148A178A168A118E108E138E128E158E71
:101F7000148E178E168E11A210A213A212A2DF9138
:101F8000CF910895DF93CF931F930F939A9DF02DD8
:101F9000219FF00D8B9DF00D8A9DE02DF10D039F8B
:101FA000F00D029FE00DF11D4E9DE00DF11D5E9DB7
:101FB000F00D4F9DF00D7F936F93BF92AF925F93A3
:101FC0004F93D5010E944D118B01AC01D7010E94A6
:101FD0004D11EB01E80FF91FD6010E9412102F914D
:101FE0003F91D6010E944D11C60FD71FE81FF91F60
:101FF000AF91BF910E9412102F913F910E944D11FD
:10200000C60FD71FE81FF91FD6010E944D11E60F1A
:10201000F71F9801BE01CF0111240F911F91CF919D
:10202000DF9108950E944D11460F571FC81FD91FF9
:1020300008F431960895689401C0E894F92FF12BC3
:1020400012F00C944F10A0E0B0E0E9E2F0E10C9443
:10205000C110092E059422F40E94AB10112392F4B2
:10206000F0E80F26FFEFE094F09400951095B094FF
:10207000C094D094A194BF0ACF0ADF0AEF0AFF0AE6
:102080000F0B1F0B0E945A1007FC0E94AB10CDB71C
:10209000DEB7ECE00C94DD10689401C0E8948F92F8
:1020A0009F92CF93DF930E945A10DF91CF919F9020
:1020B0008F90089588249924F401E401B0E49F935B
:1020C000AA279A158B049C04ED05FE05CF05D007C1
:1020D000A10798F4AD2FDC2FCF2FFE2FE92D982CE0
:1020E000892E982F872F762F652F542F432F322F2D
:1020F0002227B85031F7BF9127C01B2EBF91BB27B5
:10210000220F331F441F551F661F771F881F991FFB
:10211000881C991CEE1FFF1FCC1FDD1FAA1FBB1FB1
:102120008A149B04EC05FD05CE05DF05A007B10769
:1021300048F08A189B08EC09FD09CE09DF09A00BBD
:10214000B10B21601A94E1F62EF49401AF01BE01A7
:10215000CD01000C0895609570958095909530950F
:102160004095509521953F4F4F4F5F4F6F4F7F4F99
:102170008F4F9F4F08952F923F924F925F926F9291
:102180007F928F929F92AF92BF92CF92DF92EF9207
:10219000FF920F931F93CF93DF93CDB7DEB7CA1B88
:1021A000DB0B0FB6F894DEBF0FBECDBF09942A88B3
:1021B000398848885F846E847D848C849B84AA845B
:1021C000B984C884DF80EE80FD800C811B81AA81E8
:1021D000B981CE0FD11D0FB6F894DEBF0FBECDBFB3
:1021E000ED0108950F93083090F0982F872F762FE8
:1021F000652F542F432F322F22270850F4CF220F60
:10220000331F441F551F661F771F881F991F0A958C
:10221000B2F70F91089597FB10F8169400080F93EA
:10222000083098F00850232F342F452F562F672F52
:10223000782F892F902DF4CF0594979587957795D2
:10224000679557954795379527950A95AAF70F9162
:1022500008952A0D3B1D4C1D5D1D6E1D7F1D801FA9
:10226000911F08952A193B094C095D096E097F09E0
:10227000800B910B08950024A7FD00942A173005C8
:102280004005500560057005800590050895EE0F26
:10229000FF1F0590F491E02D0994A29FB001B39F18
:1022A000C001A39F700D811D1124911DB29F700D5F
:1022B000811D1124911D08955058BB27AA270E9403
:1022C00074110C9405130E94F71238F00E94FE124C
:1022D00020F039F49F3F19F426F40C94E4120EF424
:1022E000E095E7FB0C94DE12E92F0E94161358F3D9
:1022F000BA17620773078407950720F079F4A6F5EB
:102300000C9438130EF4E0950B2EBA2FA02D0B0170
:10231000B90190010C01CA01A0011124FF27591B2A
:1023200099F0593F50F4503E68F11A16F040A22F30
:10233000232F342F4427585FF3CF469537952795A1
:10234000A795F0405395C9F77EF41F16BA0B620BA0
:10235000730B840BBAF09150A1F0FF0FBB1F661FE7
:10236000771F881FC2F70EC0BA0F621F731F841F2A
:1023700048F4879577956795B795F7959E3F08F050
:10238000B0CF9395880F08F09927EE0F9795879512
:1023900008950E94BA1208F481E008950E94E211A3
:1023A0000C9405130E94FE1258F00E94F71240F0A0
:1023B00029F45F3F29F00C94DE1251110C9439136B
:1023C0000C94E4120E94161368F39923B1F3552379
:1023D00091F3951B550BBB27AA2762177307840738
:1023E00038F09F5F5F4F220F331F441FAA1FA9F3CE
:1023F00035D00E2E3AF0E0E832D091505040E695BC
:10240000001CCAF72BD0FE2F29D0660F771F881F1C
:10241000BB1F261737074807AB07B0E809F0BB0B0F
:10242000802DBF01FF2793585F4F3AF09E3F510523
:1024300078F00C94DE120C9439135F3FE4F3983E6D
:10244000D4F3869577956795B795F7959F5FC9F70C
:10245000880F911D9695879597F90895E1E0660F8D
:10246000771F881FBB1F621773078407BA0720F006
:10247000621B730B840BBA0BEE1F88F7E09508956F
:102480000E9447126894B1110C94391308950E9468
:102490001E1388F09F5798F0B92F9927B751B0F0C5
:1024A000E1F0660F771F881F991F1AF0BA95C9F7D8
:1024B00014C0B13091F00E943813B1E008950C942B
:1024C0003813672F782F8827B85F39F0B93FCCF3DE
:1024D000869577956795B395D9F73EF49095809555
:1024E000709561957F4F8F4F9F4F089597FB16F41E
:1024F0000E94E7120C947D12E894F92F96EBFF23CB
:1025000081F0121613061406440B9395F6958795E1
:102510007795679557954040FF23B9F71BC09927DA
:102520000895882351F49850D2F7872B762F652F82
:10253000542F432F322F20E0B1F312161306140646
:10254000440B88233AF09A95440F551F661F771F56
:10255000881FCAF755234AF4440F551F11F460FF32
:1025600004C06F5F7F4F8F4F9F4F880F9695879561
:1025700097F90895990F0008550FAA0BE0E8FEEFB0
:1025800016161706E807F907C0F012161306E40737
:10259000F50798F0621B730B840B950B39F40A2630
:1025A00061F0232B242B252B21F408950A2609F40E
:1025B000A140A6958FEF811D811D089597F99F6712
:1025C00080E870E060E008959FEF80EC08959095BA
:1025D00080957095609550954095309521953F4F29
:1025E0004F4F5F4F6F4F7F4F8F4F9F4F0895002486
:1025F0000A941616170618060906089500240A9468
:1026000012161306140605060895092E0394000CED
:1026100011F4882352F0BB0F40F4BF2B11F460FF7C
:1026200004C06F5F7F4F8F4F9F4F089557FD9058A5
:10263000440F551F59F05F3F71F04795880F97FB86
:10264000991F61F09F3F79F0879508951216130640
:102650001406551FF2CF4695F1DF08C0161617066F
:102660001806991FF1CF86957105610508940895A4
:10267000E894BB2766277727CB0197F908950E9436
:10268000BA1208F48FEF08950E9457130C940513A3
:102690000E94F71238F00E94FE1220F0952311F0EC
:1026A0000C94DE120C94E41211240C9439130E9441
:1026B000161370F3959FC1F3950F50E0551F629F5D
:1026C000F001729FBB27F00DB11D639FAA27F00D8B
:1026D000B11DAA1F649F6627B00DA11D661F829FB2
:1026E0002227B00DA11D621F739FB00DA11D621F97
:1026F000839FA00D611D221F749F3327A00D611DB4
:10270000231F849F600D211D822F762F6A2F112495
:102710009F5750409AF0F1F088234AF0EE0FFF1FC8
:10272000BB1F661F771F881F91505040A9F79E3F1F
:10273000510580F00C94DE120C9439135F3FE4F3E2
:10274000983ED4F3869577956795B795F795E79575
:102750009F5FC1F7FE2B880F911D9695879597F97E
:102760000895FA01EE0FFF1F309621053105A1F102
:102770006115710561F48038BFE39B0749F16894E6
:102780009038810561F08038BFEF9B0741F09923B5
:102790004AF5FF3FE1053105210519F1E894089458
:1027A000E795D901AA2329F4AB2FBE2FF85FD0F308
:1027B00010C0FF5F70F4A695E0F7F73950F019F0FC
:1027C000FF3A38F49F779F930DD00F9007FC9058F5
:1027D000089546F00C94E41260E070E080E89FE316
:1027E00008954FE79F775F934F933F932F930E94F6
:1027F000AC142F913F914F915F910E9444130C9420
:10280000091429F416F00C94DE120C9438130C946D
:10281000E4120E941E13A8F39638A0F707F80F924F
:10282000E8942BE33AEA48EB5FE70E945A130F92D1
:102830000F920F924DB75EB70F920E94F414E8E624
:10284000F0E00E943B144F915F91EF91FF91E5956D
:10285000EE1FFF1F49F0FE57E0684427EE0F441FAC
:10286000FA95E1F74195550B0E946E140F9007FE03
:102870000C9462140895DF93CF931F930F93FF92EC
:10288000EF92DF927B018C01689406C0DA2EEF0193
:102890000E945713FE01E894A59125913591459129
:1028A0005591A6F3EF010E947411FE019701A80152
:1028B000DA9469F7DF90EF90FF900F911F91CF911D
:1028C000DF9108959B01AC0160E070E080E89FE338
:1028D0000C94CE110C94DE120C9465150E941E13FC
:1028E000D8F39923C9F3940F511DA3F3915050408D
:1028F00094F059F0882332F0660F771F881F9150AB
:102900005040C1F79E3F51052CF7880F911D9695B9
:10291000879597F908955F3FACF0983E9CF0BB27F0
:10292000869577956795B79508F4B1609395C1F74B
:10293000BB0F58F711F460FFE8CF6F5F7F4F8F4FE9
:102940009F4FE3CF0C94391316F00C9465150C943B
:10295000E41268940C94DE120E941E13A8F39923CB
:10296000C1F3AEF3DF93CF931F930F93FF92C92F61
:10297000DD2788232AF02197660F771F881FDAF753
:1029800020E030E040E85FEB9FE3883920F0803EB4
:1029900038F021968F770E945D11E0E9F0E004C0E5
:1029A0000E945D11EDEBF0E00E943B148B01BE0133
:1029B000EC01FB2E6F5771097595771F880B990BEA
:1029C0000E942A1528E132E741E35FE30E94571392
:1029D000AF2D9801AE01FF900F911F91CF91DF9124
:1029E0000E9474110C940513FA01DC01AA0FBB1F9D
:1029F0009B01AC01BF5728F4222733274427507886
:102A000020C0B75190F4AB2F0024469537952795F9
:102A1000011CA395D2F3002071F0220F331F441F35
:102A2000B395DAF30ED00C945C1161307105A0E817
:102A30008A07B94630F49B01AC01662777278827BF
:102A40009078309621F02083318342835383089518
:102A5000E89409C097FB3EF4909580957095619538
:102A60007F4F8F4F9F4F9923A9F0F92F96E9BB27EE
:102A70009395F695879577956795B795F111F8CF6A
:102A8000FAF4BB0F11F460FF1BC06F5F7F4F8F4FD5
:102A90009F4F16C0882311F096E911C0772321F0CB
:102AA0009EE8872F762F05C0662371F096E8862F63
:102AB00070E060E02AF09A95660F771F881FDAF7BA
:102AC000880F9695879597F908959F3F31F091501B
:102AD00020F4879577956795B795880F911D969502
:102AE000879597F9089581E090E0F8940C94781513
:042AF000F894FFCF88
:102AF4007F00000102010301010104010101010140
:102B0400010105000407090C100D1514131A1317FD
:102B1400000E07050B0A0E110F1316151C151800CD
:102B24001202030405060708090A0B0C0E0F101104
:102B3400000000009A036D03F8004103650351038C
:102B44004203000000006401CD00FB00B1012C0130
:042B54000A011E0153
:00000001FF
